{
  "address": "0xf1A9CD3f08C50a75dd383972CcdC5b0129F9cC29",
  "abi": [
    {
      "inputs": [
        {
          "internalType": "address",
          "name": "_trustedForwarder",
          "type": "address"
        }
      ],
      "stateMutability": "nonpayable",
      "type": "constructor"
    },
    {
      "anonymous": false,
      "inputs": [
        {
          "indexed": false,
          "internalType": "uint256",
          "name": "id",
          "type": "uint256"
        },
        {
          "indexed": false,
          "internalType": "contract Escrow",
          "name": "escrow",
          "type": "address"
        },
        {
          "indexed": true,
          "internalType": "contract IERC20",
          "name": "token",
          "type": "address"
        },
        {
          "indexed": true,
          "internalType": "address",
          "name": "seller",
          "type": "address"
        },
        {
          "indexed": true,
          "internalType": "address",
          "name": "buyer",
          "type": "address"
        },
        {
          "indexed": false,
          "internalType": "uint256",
          "name": "amount",
          "type": "uint256"
        }
      ],
      "name": "EscrowClosed",
      "type": "event"
    },
    {
      "anonymous": false,
      "inputs": [
        {
          "indexed": false,
          "internalType": "uint256",
          "name": "id",
          "type": "uint256"
        },
        {
          "indexed": false,
          "internalType": "contract Escrow",
          "name": "escrow",
          "type": "address"
        },
        {
          "indexed": true,
          "internalType": "contract IERC20",
          "name": "token",
          "type": "address"
        },
        {
          "indexed": true,
          "internalType": "address",
          "name": "seller",
          "type": "address"
        },
        {
          "indexed": true,
          "internalType": "address",
          "name": "buyer",
          "type": "address"
        },
        {
          "indexed": false,
          "internalType": "uint256",
          "name": "amount",
          "type": "uint256"
        }
      ],
      "name": "EscrowCreated",
      "type": "event"
    },
    {
      "anonymous": false,
      "inputs": [
        {
          "indexed": true,
          "internalType": "address",
          "name": "previousOwner",
          "type": "address"
        },
        {
          "indexed": true,
          "internalType": "address",
          "name": "newOwner",
          "type": "address"
        }
      ],
      "name": "OwnershipTransferred",
      "type": "event"
    },
    {
      "inputs": [
        {
          "internalType": "uint256",
          "name": "id",
          "type": "uint256"
        }
      ],
      "name": "closeEscrow",
      "outputs": [],
      "stateMutability": "nonpayable",
      "type": "function"
    },
    {
      "inputs": [
        {
          "internalType": "contract IERC20",
          "name": "token",
          "type": "address"
        },
        {
          "internalType": "uint256",
          "name": "amount",
          "type": "uint256"
        },
        {
          "internalType": "address",
          "name": "seller",
          "type": "address"
        },
        {
          "internalType": "address",
          "name": "buyer",
          "type": "address"
        },
        {
          "internalType": "bytes32[2]",
          "name": "doubleHashedSecretsOfSeller",
          "type": "bytes32[2]"
        },
        {
          "internalType": "bytes32[2]",
          "name": "doubleHashedSecretsOfBuyer",
          "type": "bytes32[2]"
        },
        {
          "internalType": "bytes32[2]",
          "name": "doubleHashedSecretsOfArbitrator",
          "type": "bytes32[2]"
        },
        {
          "internalType": "bytes32",
          "name": "salt",
          "type": "bytes32"
        }
      ],
      "name": "createEscrow",
      "outputs": [
        {
          "internalType": "contract Escrow",
          "name": "escrow",
          "type": "address"
        }
      ],
      "stateMutability": "nonpayable",
      "type": "function"
    },
    {
      "inputs": [
        {
          "internalType": "uint256",
          "name": "",
          "type": "uint256"
        }
      ],
      "name": "escrows",
      "outputs": [
        {
          "internalType": "contract Escrow",
          "name": "",
          "type": "address"
        }
      ],
      "stateMutability": "view",
      "type": "function"
    },
    {
      "inputs": [],
      "name": "escrowsCount",
      "outputs": [
        {
          "internalType": "uint256",
          "name": "_value",
          "type": "uint256"
        }
      ],
      "stateMutability": "view",
      "type": "function"
    },
    {
      "inputs": [
        {
          "internalType": "address",
          "name": "forwarder",
          "type": "address"
        }
      ],
      "name": "isTrustedForwarder",
      "outputs": [
        {
          "internalType": "bool",
          "name": "",
          "type": "bool"
        }
      ],
      "stateMutability": "view",
      "type": "function"
    },
    {
      "inputs": [
        {
          "internalType": "bytes[]",
          "name": "data",
          "type": "bytes[]"
        }
      ],
      "name": "multicall",
      "outputs": [
        {
          "internalType": "bytes[]",
          "name": "results",
          "type": "bytes[]"
        }
      ],
      "stateMutability": "nonpayable",
      "type": "function"
    },
    {
      "inputs": [],
      "name": "owner",
      "outputs": [
        {
          "internalType": "address",
          "name": "",
          "type": "address"
        }
      ],
      "stateMutability": "view",
      "type": "function"
    },
    {
      "inputs": [],
      "name": "renounceOwnership",
      "outputs": [],
      "stateMutability": "nonpayable",
      "type": "function"
    },
    {
      "inputs": [
        {
          "internalType": "address",
          "name": "_tokenAddress",
          "type": "address"
        },
        {
          "internalType": "address",
          "name": "_to",
          "type": "address"
        },
        {
          "internalType": "uint256",
          "name": "_amount",
          "type": "uint256"
        }
      ],
      "name": "transferAnyERC20",
      "outputs": [],
      "stateMutability": "nonpayable",
      "type": "function"
    },
    {
      "inputs": [
        {
          "internalType": "address",
          "name": "newOwner",
          "type": "address"
        }
      ],
      "name": "transferOwnership",
      "outputs": [],
      "stateMutability": "nonpayable",
      "type": "function"
    },
    {
      "inputs": [],
      "name": "trustedForwarder",
      "outputs": [
        {
          "internalType": "address",
          "name": "",
          "type": "address"
        }
      ],
      "stateMutability": "view",
      "type": "function"
    },
    {
      "inputs": [],
      "name": "versionRecipient",
      "outputs": [
        {
          "internalType": "string",
          "name": "",
          "type": "string"
        }
      ],
      "stateMutability": "view",
      "type": "function"
    }
  ],
  "transactionHash": "0x9d036242d5869b21ec701c74f115473b2a8d91608206722c4957b9c1c90e0e9c",
  "args": [
    "0x0A5b2D594e2F7C1f42D92a4E50620Eea56a4E4B4"
  ],
  "solcInputHash": "a933d136ae068340f2e4348ac4cd6ccd",
  "bytecode": "0x60806040526040518060400160405280600581526020017f312e302e3000000000000000000000000000000000000000000000000000000081525060049080519060200190620000519291906200027d565b503480156200005f57600080fd5b506040516200419838038062004198833981810160405281019062000085919062000344565b620000a562000099620000bd60201b60201c565b620000d960201b60201c565b620000b6816200019f60201b60201c565b5062000423565b6000620000d4620001e260201b62000cde1760201c565b905090565b6000600160009054906101000a900473ffffffffffffffffffffffffffffffffffffffff16905081600160006101000a81548173ffffffffffffffffffffffffffffffffffffffff021916908373ffffffffffffffffffffffffffffffffffffffff1602179055508173ffffffffffffffffffffffffffffffffffffffff168173ffffffffffffffffffffffffffffffffffffffff167f8be0079c531659141344cd1fd0a4f28419497f9722a3daafe3b4186f6b6457e060405160405180910390a35050565b806000806101000a81548173ffffffffffffffffffffffffffffffffffffffff021916908373ffffffffffffffffffffffffffffffffffffffff16021790555050565b6000601460003690501015801562000207575062000206336200022460201b60201c565b5b156200021d57601436033560601c905062000221565b3390505b90565b60008060009054906101000a900473ffffffffffffffffffffffffffffffffffffffff1673ffffffffffffffffffffffffffffffffffffffff168273ffffffffffffffffffffffffffffffffffffffff16149050919050565b8280546200028b90620003a4565b90600052602060002090601f016020900481019282620002af5760008555620002fb565b82601f10620002ca57805160ff1916838001178555620002fb565b82800160010185558215620002fb579182015b82811115620002fa578251825591602001919060010190620002dd565b5b5090506200030a91906200030e565b5090565b5b80821115620003295760008160009055506001016200030f565b5090565b6000815190506200033e8162000409565b92915050565b6000602082840312156200035757600080fd5b600062000367848285016200032d565b91505092915050565b60006200037d8262000384565b9050919050565b600073ffffffffffffffffffffffffffffffffffffffff82169050919050565b60006002820490506001821680620003bd57607f821691505b60208210811415620003d457620003d3620003da565b5b50919050565b7f4e487b7100000000000000000000000000000000000000000000000000000000600052602260045260246000fd5b620004148162000370565b81146200042057600080fd5b50565b613d6580620004336000396000f3fe60806040523480156200001157600080fd5b5060043610620000c45760003560e01c80637da0a877116200007b5780637da0a87714620001a55780638da5cb5b14620001c7578063ac9650d814620001e9578063e24cf226146200021f578063f2fde38b146200023f578063f8b91ce1146200025f57620000c4565b8063012f52ee14620000c957806330059b6d14620000ff578063486ff0cd1462000121578063572b6c0514620001435780635b6f547e1462000179578063715018a61462000199575b600080fd5b620000e76004803603810190620000e1919062001359565b62000295565b604051620000f69190620017e5565b60405180910390f35b62000109620002c8565b604051620001189190620018ae565b60405180910390f35b6200012b620002d4565b6040516200013a919062001802565b60405180910390f35b6200016160048036038101906200015b919062001145565b6200036a565b604051620001709190620017c8565b60405180910390f35b6200019760048036038101906200019191906200119d565b620003c3565b005b620001a3620004df565b005b620001af62000570565b604051620001be9190620016aa565b60405180910390f35b620001d162000599565b604051620001e09190620016aa565b60405180910390f35b620002076004803603810190620002019190620011f3565b620005c3565b604051620002169190620017a4565b60405180910390f35b6200023d600480360381019062000237919062001359565b6200074e565b005b6200025d600480360381019062000257919062001145565b62000a81565b005b6200027d600480360381019062000277919062001294565b62000b85565b6040516200028c9190620017e5565b60405180910390f35b60026020528060005260406000206000915054906101000a900473ffffffffffffffffffffffffffffffffffffffff1681565b60038060000154905081565b60048054620002e39062001b73565b80601f0160208091040260200160405190810160405280929190818152602001828054620003119062001b73565b8015620003625780601f10620003365761010080835404028352916020019162000362565b820191906000526020600020905b8154815290600101906020018083116200034457829003601f168201915b505050505081565b60008060009054906101000a900473ffffffffffffffffffffffffffffffffffffffff1673ffffffffffffffffffffffffffffffffffffffff168273ffffffffffffffffffffffffffffffffffffffff16149050919050565b620003cd62000d1a565b73ffffffffffffffffffffffffffffffffffffffff16620003ed62000599565b73ffffffffffffffffffffffffffffffffffffffff161462000446576040517f08c379a00000000000000000000000000000000000000000000000000000000081526004016200043d906200186a565b60405180910390fd5b8273ffffffffffffffffffffffffffffffffffffffff1663a9059cbb83836040518363ffffffff1660e01b81526004016200048392919062001777565b602060405180830381600087803b1580156200049e57600080fd5b505af1158015620004b3573d6000803e3d6000fd5b505050506040513d601f19601f82011682018060405250810190620004d991906200123c565b50505050565b620004e962000d1a565b73ffffffffffffffffffffffffffffffffffffffff166200050962000599565b73ffffffffffffffffffffffffffffffffffffffff161462000562576040517f08c379a000000000000000000000000000000000000000000000000000000000815260040162000559906200186a565b60405180910390fd5b6200056e600062000d2b565b565b60008060009054906101000a900473ffffffffffffffffffffffffffffffffffffffff16905090565b6000600160009054906101000a900473ffffffffffffffffffffffffffffffffffffffff16905090565b60608282905067ffffffffffffffff81111562000609577f4e487b7100000000000000000000000000000000000000000000000000000000600052604160045260246000fd5b6040519080825280602002602001820160405280156200063e57816020015b6060815260200190600190039081620006285790505b50905060005b838390508110156200074757620006ec308585848181106200068f577f4e487b7100000000000000000000000000000000000000000000000000000000600052603260045260246000fd5b9050602002810190620006a3919062001908565b8080601f016020809104026020016040519081016040528093929190818152602001838380828437600081840152601f19601f8201169050808301925050505050505062000df1565b82828151811062000726577f4e487b7100000000000000000000000000000000000000000000000000000000600052603260045260246000fd5b602002602001018190525080806200073e9062001bdf565b91505062000644565b5092915050565b60006002600083815260200190815260200160002060009054906101000a900473ffffffffffffffffffffffffffffffffffffffff1690508073ffffffffffffffffffffffffffffffffffffffff163373ffffffffffffffffffffffffffffffffffffffff1614620007f7576040517f08c379a0000000000000000000000000000000000000000000000000000000008152600401620007ee9062001848565b60405180910390fd5b8073ffffffffffffffffffffffffffffffffffffffff16637150d8ae6040518163ffffffff1660e01b815260040160206040518083038186803b1580156200083e57600080fd5b505afa15801562000853573d6000803e3d6000fd5b505050506040513d601f19601f8201168201806040525081019062000879919062001171565b73ffffffffffffffffffffffffffffffffffffffff168173ffffffffffffffffffffffffffffffffffffffff166308551a536040518163ffffffff1660e01b815260040160206040518083038186803b158015620008d657600080fd5b505afa158015620008eb573d6000803e3d6000fd5b505050506040513d601f19601f8201168201806040525081019062000911919062001171565b73ffffffffffffffffffffffffffffffffffffffff168273ffffffffffffffffffffffffffffffffffffffff1663fc0c546a6040518163ffffffff1660e01b815260040160206040518083038186803b1580156200096e57600080fd5b505afa15801562000983573d6000803e3d6000fd5b505050506040513d601f19601f82011682018060405250810190620009a9919062001268565b73ffffffffffffffffffffffffffffffffffffffff167f6c8957b3f6aa5c87eb9c2389507d0dcef1294004d54ab45e9dd366fded17619785858673ffffffffffffffffffffffffffffffffffffffff1663aa8c217c6040518163ffffffff1660e01b815260040160206040518083038186803b15801562000a2957600080fd5b505afa15801562000a3e573d6000803e3d6000fd5b505050506040513d601f19601f8201168201806040525081019062000a64919062001385565b60405162000a7593929190620018cb565b60405180910390a45050565b62000a8b62000d1a565b73ffffffffffffffffffffffffffffffffffffffff1662000aab62000599565b73ffffffffffffffffffffffffffffffffffffffff161462000b04576040517f08c379a000000000000000000000000000000000000000000000000000000000815260040162000afb906200186a565b60405180910390fd5b600073ffffffffffffffffffffffffffffffffffffffff168173ffffffffffffffffffffffffffffffffffffffff16141562000b77576040517f08c379a000000000000000000000000000000000000000000000000000000000815260040162000b6e9062001826565b60405180910390fd5b62000b828162000d2b565b50565b60008062000b94600362000e21565b905062000ba2600362000e2f565b8262000bad62000570565b30838d8d8d8d8d8d8d60405162000bc49062000f9c565b62000bd99a99989796959493929190620016c7565b8190604051809103906000f590508015801562000bfa573d6000803e3d6000fd5b509150816002600083815260200190815260200160002060006101000a81548173ffffffffffffffffffffffffffffffffffffffff021916908373ffffffffffffffffffffffffffffffffffffffff1602179055508673ffffffffffffffffffffffffffffffffffffffff168873ffffffffffffffffffffffffffffffffffffffff168b73ffffffffffffffffffffffffffffffffffffffff167f25d66f1e42a6e2622d4cf88af1ef010192e7ed3507683668d27b33ff2bbdfcfc84868e60405162000cc993929190620018cb565b60405180910390a45098975050505050505050565b6000601460003690501015801562000cfd575062000cfc336200036a565b5b1562000d1357601436033560601c905062000d17565b3390505b90565b600062000d2662000cde565b905090565b6000600160009054906101000a900473ffffffffffffffffffffffffffffffffffffffff16905081600160006101000a81548173ffffffffffffffffffffffffffffffffffffffff021916908373ffffffffffffffffffffffffffffffffffffffff1602179055508173ffffffffffffffffffffffffffffffffffffffff168173ffffffffffffffffffffffffffffffffffffffff167f8be0079c531659141344cd1fd0a4f28419497f9722a3daafe3b4186f6b6457e060405160405180910390a35050565b606062000e19838360405180606001604052806027815260200162003d096027913962000e45565b905092915050565b600081600001549050919050565b6001816000016000828254019250508190555050565b606062000e528462000f1d565b62000e94576040517f08c379a000000000000000000000000000000000000000000000000000000000815260040162000e8b906200188c565b60405180910390fd5b6000808573ffffffffffffffffffffffffffffffffffffffff168560405162000ebe919062001691565b600060405180830381855af49150503d806000811462000efb576040519150601f19603f3d011682016040523d82523d6000602084013e62000f00565b606091505b509150915062000f1282828662000f30565b925050509392505050565b600080823b905060008111915050919050565b6060831562000f425782905062000f95565b60008351111562000f565782518084602001fd5b816040517f08c379a000000000000000000000000000000000000000000000000000000000815260040162000f8c919062001802565b60405180910390fd5b9392505050565b611ecb8062001e3e83390190565b600062000fc162000fbb846200198b565b62001962565b9050808285602086028201111562000fd857600080fd5b60005b858110156200100c578162000ff18882620010d2565b84526020840193506020830192505060018101905062000fdb565b5050509392505050565b600081359050620010278162001dbb565b92915050565b6000815190506200103e8162001dbb565b92915050565b600082601f8301126200105657600080fd5b60026200106584828562000faa565b91505092915050565b60008083601f8401126200108157600080fd5b8235905067ffffffffffffffff8111156200109b57600080fd5b602083019150836020820283011115620010b457600080fd5b9250929050565b600081519050620010cc8162001dd5565b92915050565b600081359050620010e38162001def565b92915050565b600081359050620010fa8162001e09565b92915050565b600081519050620011118162001e09565b92915050565b600081359050620011288162001e23565b92915050565b6000815190506200113f8162001e23565b92915050565b6000602082840312156200115857600080fd5b6000620011688482850162001016565b91505092915050565b6000602082840312156200118457600080fd5b600062001194848285016200102d565b91505092915050565b600080600060608486031215620011b357600080fd5b6000620011c38682870162001016565b9350506020620011d68682870162001016565b9250506040620011e98682870162001117565b9150509250925092565b600080602083850312156200120757600080fd5b600083013567ffffffffffffffff8111156200122257600080fd5b62001230858286016200106e565b92509250509250929050565b6000602082840312156200124f57600080fd5b60006200125f84828501620010bb565b91505092915050565b6000602082840312156200127b57600080fd5b60006200128b8482850162001100565b91505092915050565b600080600080600080600080610160898b031215620012b257600080fd5b6000620012c28b828c01620010e9565b9850506020620012d58b828c0162001117565b9750506040620012e88b828c0162001016565b9650506060620012fb8b828c0162001016565b95505060806200130e8b828c0162001044565b94505060c0620013218b828c0162001044565b935050610100620013358b828c0162001044565b925050610140620013498b828c01620010d2565b9150509295985092959890939650565b6000602082840312156200136c57600080fd5b60006200137c8482850162001117565b91505092915050565b6000602082840312156200139857600080fd5b6000620013a8848285016200112e565b91505092915050565b6000620013bf8383620014e7565b60208301905092915050565b6000620013d98383620014f8565b905092915050565b620013ec8162001a5d565b82525050565b620013fd81620019ce565b62001409818462001a14565b92506200141682620019b4565b8060005b838110156200144d578151620014318782620013b1565b96506200143e83620019fa565b9250506001810190506200141a565b505050505050565b60006200146282620019d9565b6200146e818562001a1f565b9350836020820285016200148285620019be565b8060005b85811015620014c45784840389528151620014a28582620013cb565b9450620014af8362001a07565b925060208a0199505060018101905062001486565b50829750879550505050505092915050565b620014e18162001a71565b82525050565b620014f28162001a7d565b82525050565b60006200150582620019e4565b62001511818562001a30565b93506200152381856020860162001b3d565b6200152e8162001cba565b840191505092915050565b60006200154682620019e4565b62001552818562001a41565b93506200156481856020860162001b3d565b80840191505092915050565b6200157b8162001ac5565b82525050565b6200158c8162001aed565b82525050565b6200159d8162001b15565b82525050565b6000620015b082620019ef565b620015bc818562001a4c565b9350620015ce81856020860162001b3d565b620015d98162001cba565b840191505092915050565b6000620015f360268362001a4c565b9150620016008262001ccb565b604082019050919050565b60006200161a601d8362001a4c565b9150620016278262001d1a565b602082019050919050565b60006200164160208362001a4c565b91506200164e8262001d43565b602082019050919050565b60006200166860268362001a4c565b9150620016758262001d6c565b604082019050919050565b6200168b8162001abb565b82525050565b60006200169f828462001539565b915081905092915050565b6000602082019050620016c16000830184620013e1565b92915050565b60006101a082019050620016df600083018d620013e1565b620016ee602083018c62001570565b620016fd604083018b62001680565b6200170c606083018a62001592565b6200171b608083018962001680565b6200172a60a0830188620013e1565b6200173960c0830187620013e1565b6200174860e0830186620013f2565b62001758610120830185620013f2565b62001768610160830184620013f2565b9b9a5050505050505050505050565b60006040820190506200178e6000830185620013e1565b6200179d602083018462001680565b9392505050565b60006020820190508181036000830152620017c0818462001455565b905092915050565b6000602082019050620017df6000830184620014d6565b92915050565b6000602082019050620017fc600083018462001581565b92915050565b600060208201905081810360008301526200181e8184620015a3565b905092915050565b600060208201905081810360008301526200184181620015e4565b9050919050565b6000602082019050818103600083015262001863816200160b565b9050919050565b60006020820190508181036000830152620018858162001632565b9050919050565b60006020820190508181036000830152620018a78162001659565b9050919050565b6000602082019050620018c5600083018462001680565b92915050565b6000606082019050620018e2600083018662001680565b620018f1602083018562001581565b62001900604083018462001680565b949350505050565b600080833560016020038436030381126200192257600080fd5b80840192508235915067ffffffffffffffff8211156200194157600080fd5b6020830192506001820236038313156200195a57600080fd5b509250929050565b60006200196e62001981565b90506200197c828262001ba9565b919050565b6000604051905090565b600067ffffffffffffffff821115620019a957620019a862001c8b565b5b602082029050919050565b6000819050919050565b6000819050602082019050919050565b600060029050919050565b600081519050919050565b600081519050919050565b600081519050919050565b6000602082019050919050565b6000602082019050919050565b600081905092915050565b600082825260208201905092915050565b600082825260208201905092915050565b600081905092915050565b600082825260208201905092915050565b600062001a6a8262001a9b565b9050919050565b60008115159050919050565b6000819050919050565b600062001a948262001a5d565b9050919050565b600073ffffffffffffffffffffffffffffffffffffffff82169050919050565b6000819050919050565b600062001ad28262001ad9565b9050919050565b600062001ae68262001a9b565b9050919050565b600062001afa8262001b01565b9050919050565b600062001b0e8262001a9b565b9050919050565b600062001b228262001b29565b9050919050565b600062001b368262001a9b565b9050919050565b60005b8381101562001b5d57808201518184015260208101905062001b40565b8381111562001b6d576000848401525b50505050565b6000600282049050600182168062001b8c57607f821691505b6020821081141562001ba35762001ba262001c5c565b5b50919050565b62001bb48262001cba565b810181811067ffffffffffffffff8211171562001bd65762001bd562001c8b565b5b80604052505050565b600062001bec8262001abb565b91507fffffffffffffffffffffffffffffffffffffffffffffffffffffffffffffffff82141562001c225762001c2162001c2d565b5b600182019050919050565b7f4e487b7100000000000000000000000000000000000000000000000000000000600052601160045260246000fd5b7f4e487b7100000000000000000000000000000000000000000000000000000000600052602260045260246000fd5b7f4e487b7100000000000000000000000000000000000000000000000000000000600052604160045260246000fd5b6000601f19601f8301169050919050565b7f4f776e61626c653a206e6577206f776e657220697320746865207a65726f206160008201527f6464726573730000000000000000000000000000000000000000000000000000602082015250565b7f4e6f742063616c6c656420627920657363726f7720636f6e7472616374000000600082015250565b7f4f776e61626c653a2063616c6c6572206973206e6f7420746865206f776e6572600082015250565b7f416464726573733a2064656c65676174652063616c6c20746f206e6f6e2d636f60008201527f6e74726163740000000000000000000000000000000000000000000000000000602082015250565b62001dc68162001a5d565b811462001dd257600080fd5b50565b62001de08162001a71565b811462001dec57600080fd5b50565b62001dfa8162001a7d565b811462001e0657600080fd5b50565b62001e148162001a87565b811462001e2057600080fd5b50565b62001e2e8162001abb565b811462001e3a57600080fd5b5056fe60806040526040518060400160405280600581526020017f312e302e30000000000000000000000000000000000000000000000000000000815250600990805190602001906200005192919062000561565b503480156200005f57600080fd5b5060405162001ecb38038062001ecb83398181016040528101906200008591906200071a565b620000968a6200051e60201b60201c565b88600160006101000a81548173ffffffffffffffffffffffffffffffffffffffff021916908373ffffffffffffffffffffffffffffffffffffffff1602179055508760028190555086600360006101000a81548173ffffffffffffffffffffffffffffffffffffffff021916908373ffffffffffffffffffffffffffffffffffffffff16021790555084600460006101000a81548173ffffffffffffffffffffffffffffffffffffffff021916908373ffffffffffffffffffffffffffffffffffffffff16021790555083600560006101000a81548173ffffffffffffffffffffffffffffffffffffffff021916908373ffffffffffffffffffffffffffffffffffffffff16021790555085600681905550846007600085600060028110620001e8577f4e487b7100000000000000000000000000000000000000000000000000000000600052603260045260246000fd5b6020020151815260200190815260200160002060006101000a81548173ffffffffffffffffffffffffffffffffffffffff021916908373ffffffffffffffffffffffffffffffffffffffff16021790555083600760008560016002811062000279577f4e487b7100000000000000000000000000000000000000000000000000000000600052603260045260246000fd5b6020020151815260200190815260200160002060006101000a81548173ffffffffffffffffffffffffffffffffffffffff021916908373ffffffffffffffffffffffffffffffffffffffff1602179055508460076000846000600281106200030a577f4e487b7100000000000000000000000000000000000000000000000000000000600052603260045260246000fd5b6020020151815260200190815260200160002060006101000a81548173ffffffffffffffffffffffffffffffffffffffff021916908373ffffffffffffffffffffffffffffffffffffffff1602179055508360076000846001600281106200039b577f4e487b7100000000000000000000000000000000000000000000000000000000600052603260045260246000fd5b6020020151815260200190815260200160002060006101000a81548173ffffffffffffffffffffffffffffffffffffffff021916908373ffffffffffffffffffffffffffffffffffffffff1602179055508460076000836000600281106200042c577f4e487b7100000000000000000000000000000000000000000000000000000000600052603260045260246000fd5b6020020151815260200190815260200160002060006101000a81548173ffffffffffffffffffffffffffffffffffffffff021916908373ffffffffffffffffffffffffffffffffffffffff160217905550836007600083600160028110620004bd577f4e487b7100000000000000000000000000000000000000000000000000000000600052603260045260246000fd5b6020020151815260200190815260200160002060006101000a81548173ffffffffffffffffffffffffffffffffffffffff021916908373ffffffffffffffffffffffffffffffffffffffff1602179055505050505050505050505062000a29565b806000806101000a81548173ffffffffffffffffffffffffffffffffffffffff021916908373ffffffffffffffffffffffffffffffffffffffff16021790555050565b8280546200056f90620008cc565b90600052602060002090601f016020900481019282620005935760008555620005df565b82601f10620005ae57805160ff1916838001178555620005df565b82800160010185558215620005df579182015b82811115620005de578251825591602001919060010190620005c1565b5b509050620005ee9190620005f2565b5090565b5b808211156200060d576000816000905550600101620005f3565b5090565b600062000628620006228462000833565b6200080a565b905080828560208602820111156200063f57600080fd5b60005b85811015620006735781620006588882620006be565b84526020840193506020830192505060018101905062000642565b5050509392505050565b6000815190506200068e81620009a7565b92915050565b600082601f830112620006a657600080fd5b6002620006b584828562000611565b91505092915050565b600081519050620006cf81620009c1565b92915050565b600081519050620006e681620009db565b92915050565b600081519050620006fd81620009f5565b92915050565b600081519050620007148162000a0f565b92915050565b6000806000806000806000806000806101a08b8d0312156200073b57600080fd5b60006200074b8d828e016200067d565b9a505060206200075e8d828e01620006ec565b9950506040620007718d828e0162000703565b9850506060620007848d828e01620006d5565b9750506080620007978d828e0162000703565b96505060a0620007aa8d828e016200067d565b95505060c0620007bd8d828e016200067d565b94505060e0620007d08d828e0162000694565b935050610120620007e48d828e0162000694565b925050610160620007f88d828e0162000694565b9150509295989b9194979a5092959850565b60006200081662000829565b905062000824828262000902565b919050565b6000604051905090565b600067ffffffffffffffff82111562000851576200085062000967565b5b602082029050919050565b60006200086982620008a2565b9050919050565b6000819050919050565b600062000887826200085c565b9050919050565b60006200089b826200085c565b9050919050565b600073ffffffffffffffffffffffffffffffffffffffff82169050919050565b6000819050919050565b60006002820490506001821680620008e557607f821691505b60208210811415620008fc57620008fb62000938565b5b50919050565b6200090d8262000996565b810181811067ffffffffffffffff821117156200092f576200092e62000967565b5b80604052505050565b7f4e487b7100000000000000000000000000000000000000000000000000000000600052602260045260246000fd5b7f4e487b7100000000000000000000000000000000000000000000000000000000600052604160045260246000fd5b6000601f19601f8301169050919050565b620009b2816200085c565b8114620009be57600080fd5b50565b620009cc8162000870565b8114620009d857600080fd5b50565b620009e6816200087a565b8114620009f257600080fd5b50565b62000a00816200088e565b811462000a0c57600080fd5b50565b62000a1a81620008c2565b811462000a2657600080fd5b50565b6114928062000a396000396000f3fe608060405234801561001057600080fd5b50600436106100b45760003560e01c80637150d8ae116100715780637150d8ae146101a35780637da0a877146101c1578063aa8c217c146101df578063ac9650d8146101fd578063f4f31da51461022d578063fc0c546a14610249576100b4565b806304ef898d146100b957806308551a53146100d757806320978463146100f557806344f219bb14610125578063486ff0cd14610155578063572b6c0514610173575b600080fd5b6100c1610267565b6040516100ce91906110d6565b60405180910390f35b6100df61026d565b6040516100ec9190610faf565b60405180910390f35b61010f600480360381019061010a9190610ccf565b610293565b60405161011c91906110d6565b60405180910390f35b61013f600480360381019061013a9190610d66565b6102ab565b60405161014c9190610faf565b60405180910390f35b61015d6102de565b60405161016a9190611074565b60405180910390f35b61018d60048036038101906101889190610ccf565b61036c565b60405161019a9190611015565b60405180910390f35b6101ab6103c5565b6040516101b89190610faf565b60405180910390f35b6101c96103eb565b6040516101d69190610faf565b60405180910390f35b6101e7610414565b6040516101f491906110d6565b60405180910390f35b61021760048036038101906102129190610cf8565b61041a565b6040516102249190610ff3565b60405180910390f35b61024760048036038101906102429190610d66565b610598565b005b610251610718565b60405161025e9190611030565b60405180910390f35b60025481565b600460009054906101000a900473ffffffffffffffffffffffffffffffffffffffff1681565b60086020528060005260406000206000915090505481565b60076020528060005260406000206000915054906101000a900473ffffffffffffffffffffffffffffffffffffffff1681565b600980546102eb9061126d565b80601f01602080910402602001604051908101604052809291908181526020018280546103179061126d565b80156103645780601f1061033957610100808354040283529160200191610364565b820191906000526020600020905b81548152906001019060200180831161034757829003601f168201915b505050505081565b60008060009054906101000a900473ffffffffffffffffffffffffffffffffffffffff1673ffffffffffffffffffffffffffffffffffffffff168273ffffffffffffffffffffffffffffffffffffffff16149050919050565b600560009054906101000a900473ffffffffffffffffffffffffffffffffffffffff1681565b60008060009054906101000a900473ffffffffffffffffffffffffffffffffffffffff16905090565b60065481565b60608282905067ffffffffffffffff81111561045f577f4e487b7100000000000000000000000000000000000000000000000000000000600052604160045260246000fd5b60405190808252806020026020018201604052801561049257816020015b606081526020019060019003908161047d5790505b50905060005b838390508110156105915761053a308585848181106104e0577f4e487b7100000000000000000000000000000000000000000000000000000000600052603260045260246000fd5b90506020028101906104f291906110f1565b8080601f016020809104026020016040519081016040528093929190818152602001838380828437600081840152601f19601f8201169050808301925050505050505061073e565b828281518110610573577f4e487b7100000000000000000000000000000000000000000000000000000000600052603260045260246000fd5b602002602001018190525080806105899061129f565b915050610498565b5092915050565b600060076000836040516020016105af9190610f7d565b60405160208183030381529060405280519060200120815260200190815260200160002060009054906101000a900473ffffffffffffffffffffffffffffffffffffffff169050600073ffffffffffffffffffffffffffffffffffffffff168173ffffffffffffffffffffffffffffffffffffffff161415610666576040517f08c379a000000000000000000000000000000000000000000000000000000000815260040161065d906110b6565b60405180910390fd5b8073ffffffffffffffffffffffffffffffffffffffff167f9dd3e83e694c58f42d31fe707a04f507f03ece293e8ac23425fcb6d15207f94860405160405180910390a26002600860008373ffffffffffffffffffffffffffffffffffffffff1673ffffffffffffffffffffffffffffffffffffffff168152602001908152602001600020600081546106f79061129f565b919050819055106107145761070b8161076b565b610713610a20565b5b5050565b600360009054906101000a900473ffffffffffffffffffffffffffffffffffffffff1681565b6060610763838360405180606001604052806027815260200161143660279139610aea565b905092915050565b600360009054906101000a900473ffffffffffffffffffffffffffffffffffffffff1673ffffffffffffffffffffffffffffffffffffffff1663a9059cbb826006546040518363ffffffff1660e01b81526004016107ca929190610fca565b602060405180830381600087803b1580156107e457600080fd5b505af11580156107f8573d6000803e3d6000fd5b505050506040513d601f19601f8201168201806040525081019061081c9190610d3d565b506000600360009054906101000a900473ffffffffffffffffffffffffffffffffffffffff1673ffffffffffffffffffffffffffffffffffffffff166370a08231306040518263ffffffff1660e01b815260040161087a9190610faf565b60206040518083038186803b15801561089257600080fd5b505afa1580156108a6573d6000803e3d6000fd5b505050506040513d601f19601f820116820180604052508101906108ca9190610d8f565b905060008111156109a857600360009054906101000a900473ffffffffffffffffffffffffffffffffffffffff1673ffffffffffffffffffffffffffffffffffffffff1663a9059cbb600160009054906101000a900473ffffffffffffffffffffffffffffffffffffffff16836040518363ffffffff1660e01b8152600401610954929190610fca565b602060405180830381600087803b15801561096e57600080fd5b505af1158015610982573d6000803e3d6000fd5b505050506040513d601f19601f820116820180604052508101906109a69190610d3d565b505b8173ffffffffffffffffffffffffffffffffffffffff167f3737f2a73c794dafe53d8aeea06810a9ebcf7167401b259406960e088e03f830600360009054906101000a900473ffffffffffffffffffffffffffffffffffffffff16600654604051610a1492919061104b565b60405180910390a25050565b600160009054906101000a900473ffffffffffffffffffffffffffffffffffffffff1673ffffffffffffffffffffffffffffffffffffffff1663e24cf2266002546040518263ffffffff1660e01b8152600401610a7d91906110d6565b600060405180830381600087803b158015610a9757600080fd5b505af1158015610aab573d6000803e3d6000fd5b50505050600160009054906101000a900473ffffffffffffffffffffffffffffffffffffffff1673ffffffffffffffffffffffffffffffffffffffff16ff5b6060610af584610bb7565b610b34576040517f08c379a0000000000000000000000000000000000000000000000000000000008152600401610b2b90611096565b60405180910390fd5b6000808573ffffffffffffffffffffffffffffffffffffffff1685604051610b5c9190610f98565b600060405180830381855af49150503d8060008114610b97576040519150601f19603f3d011682016040523d82523d6000602084013e610b9c565b606091505b5091509150610bac828286610bca565b925050509392505050565b600080823b905060008111915050919050565b60608315610bda57829050610c2a565b600083511115610bed5782518084602001fd5b816040517f08c379a0000000000000000000000000000000000000000000000000000000008152600401610c219190611074565b60405180910390fd5b9392505050565b600081359050610c40816113d9565b92915050565b60008083601f840112610c5857600080fd5b8235905067ffffffffffffffff811115610c7157600080fd5b602083019150836020820283011115610c8957600080fd5b9250929050565b600081519050610c9f816113f0565b92915050565b600081359050610cb481611407565b92915050565b600081519050610cc98161141e565b92915050565b600060208284031215610ce157600080fd5b6000610cef84828501610c31565b91505092915050565b60008060208385031215610d0b57600080fd5b600083013567ffffffffffffffff811115610d2557600080fd5b610d3185828601610c46565b92509250509250929050565b600060208284031215610d4f57600080fd5b6000610d5d84828501610c90565b91505092915050565b600060208284031215610d7857600080fd5b6000610d8684828501610ca5565b91505092915050565b600060208284031215610da157600080fd5b6000610daf84828501610cba565b91505092915050565b6000610dc48383610e76565b905092915050565b610dd5816111c4565b82525050565b6000610de682611158565b610df08185611186565b935083602082028501610e0285611148565b8060005b85811015610e3e5784840389528151610e1f8582610db8565b9450610e2a83611179565b925060208a01995050600181019050610e06565b50829750879550505050505092915050565b610e59816111d6565b82525050565b610e70610e6b826111e2565b6112e8565b82525050565b6000610e8182611163565b610e8b8185611197565b9350610e9b81856020860161123a565b610ea481611350565b840191505092915050565b6000610eba82611163565b610ec481856111a8565b9350610ed481856020860161123a565b80840191505092915050565b610ee981611216565b82525050565b6000610efa8261116e565b610f0481856111b3565b9350610f1481856020860161123a565b610f1d81611350565b840191505092915050565b6000610f356026836111b3565b9150610f4082611361565b604082019050919050565b6000610f58600c836111b3565b9150610f63826113b0565b602082019050919050565b610f778161120c565b82525050565b6000610f898284610e5f565b60208201915081905092915050565b6000610fa48284610eaf565b915081905092915050565b6000602082019050610fc46000830184610dcc565b92915050565b6000604082019050610fdf6000830185610dcc565b610fec6020830184610f6e565b9392505050565b6000602082019050818103600083015261100d8184610ddb565b905092915050565b600060208201905061102a6000830184610e50565b92915050565b60006020820190506110456000830184610ee0565b92915050565b60006040820190506110606000830185610ee0565b61106d6020830184610f6e565b9392505050565b6000602082019050818103600083015261108e8184610eef565b905092915050565b600060208201905081810360008301526110af81610f28565b9050919050565b600060208201905081810360008301526110cf81610f4b565b9050919050565b60006020820190506110eb6000830184610f6e565b92915050565b6000808335600160200384360303811261110a57600080fd5b80840192508235915067ffffffffffffffff82111561112857600080fd5b60208301925060018202360383131561114057600080fd5b509250929050565b6000819050602082019050919050565b600081519050919050565b600081519050919050565b600081519050919050565b6000602082019050919050565b600082825260208201905092915050565b600082825260208201905092915050565b600081905092915050565b600082825260208201905092915050565b60006111cf826111ec565b9050919050565b60008115159050919050565b6000819050919050565b600073ffffffffffffffffffffffffffffffffffffffff82169050919050565b6000819050919050565b600061122182611228565b9050919050565b6000611233826111ec565b9050919050565b60005b8381101561125857808201518184015260208101905061123d565b83811115611267576000848401525b50505050565b6000600282049050600182168061128557607f821691505b6020821081141561129957611298611321565b5b50919050565b60006112aa8261120c565b91507fffffffffffffffffffffffffffffffffffffffffffffffffffffffffffffffff8214156112dd576112dc6112f2565b5b600182019050919050565b6000819050919050565b7f4e487b7100000000000000000000000000000000000000000000000000000000600052601160045260246000fd5b7f4e487b7100000000000000000000000000000000000000000000000000000000600052602260045260246000fd5b6000601f19601f8301169050919050565b7f416464726573733a2064656c65676174652063616c6c20746f206e6f6e2d636f60008201527f6e74726163740000000000000000000000000000000000000000000000000000602082015250565b7f57726f6e67207365637265740000000000000000000000000000000000000000600082015250565b6113e2816111c4565b81146113ed57600080fd5b50565b6113f9816111d6565b811461140457600080fd5b50565b611410816111e2565b811461141b57600080fd5b50565b6114278161120c565b811461143257600080fd5b5056fe416464726573733a206c6f772d6c6576656c2064656c65676174652063616c6c206661696c6564a2646970667358221220c152e882ffcb5b98a5f46816d5c9cfcec9bffcff7b4a5e298015d4ea788949b264736f6c63430008040033416464726573733a206c6f772d6c6576656c2064656c65676174652063616c6c206661696c6564a26469706673582212207421b010dde5635e4d7347fc70047f3aab5c9972ea761e0f22ea2663bfa33f1664736f6c63430008040033",
  "devdoc": {
    "kind": "dev",
    "methods": {
      "multicall(bytes[])": {
        "details": "Receives and executes a batch of function calls on this contract."
      },
      "owner()": {
        "details": "Returns the address of the current owner."
      },
      "renounceOwnership()": {
        "details": "Leaves the contract without owner. It will not be possible to call `onlyOwner` functions anymore. Can only be called by the current owner. NOTE: Renouncing ownership will leave the contract without an owner, thereby removing any functionality that is only available to the owner."
      },
      "transferAnyERC20(address,address,uint256)": {
        "params": {
          "_amount": "amount of tokens to unlock",
          "_to": "the address to send the tokens to",
          "_tokenAddress": "the address of the tokens to unlock"
        }
      },
      "transferOwnership(address)": {
        "details": "Transfers ownership of the contract to a new account (`newOwner`). Can only be called by the current owner."
      }
    },
    "version": 1
  },
  "userdoc": {
    "kind": "user",
    "methods": {
      "isTrustedForwarder(address)": {
        "notice": "return if the forwarder is trusted to forward relayed transactions to us. the forwarder is required to verify the sender's signature, and verify the call is not a replay."
      },
      "transferAnyERC20(address,address,uint256)": {
        "notice": "called when contract owner wants to unlock erc20 tokens owned by the contract"
      }
    },
    "version": 1
  },
  "storageLayout": {
    "storage": [
      {
        "astId": 7,
        "contract": "contracts/EscrowRegistry.sol:EscrowRegistry",
        "label": "_trustedForwarder",
        "offset": 0,
        "slot": "0",
        "type": "t_address"
      },
      {
        "astId": 137,
        "contract": "contracts/EscrowRegistry.sol:EscrowRegistry",
        "label": "_owner",
        "offset": 0,
        "slot": "1",
        "type": "t_address"
      },
      {
        "astId": 1059,
        "contract": "contracts/EscrowRegistry.sol:EscrowRegistry",
        "label": "escrows",
        "offset": 0,
        "slot": "2",
        "type": "t_mapping(t_uint256,t_contract(Escrow)1032)"
      },
      {
        "astId": 1062,
        "contract": "contracts/EscrowRegistry.sol:EscrowRegistry",
        "label": "escrowsCount",
        "offset": 0,
        "slot": "3",
        "type": "t_struct(Counter)637_storage"
      },
      {
        "astId": 1066,
        "contract": "contracts/EscrowRegistry.sol:EscrowRegistry",
        "label": "versionRecipient",
        "offset": 0,
        "slot": "4",
        "type": "t_string_storage"
      }
    ],
    "types": {
      "t_address": {
        "encoding": "inplace",
        "label": "address",
        "numberOfBytes": "20"
      },
      "t_contract(Escrow)1032": {
        "encoding": "inplace",
        "label": "contract Escrow",
        "numberOfBytes": "20"
      },
      "t_mapping(t_uint256,t_contract(Escrow)1032)": {
        "encoding": "mapping",
        "key": "t_uint256",
        "label": "mapping(uint256 => contract Escrow)",
        "numberOfBytes": "32",
        "value": "t_contract(Escrow)1032"
      },
      "t_string_storage": {
        "encoding": "bytes",
        "label": "string",
        "numberOfBytes": "32"
      },
      "t_struct(Counter)637_storage": {
        "encoding": "inplace",
        "label": "struct Counters.Counter",
        "members": [
          {
            "astId": 636,
            "contract": "contracts/EscrowRegistry.sol:EscrowRegistry",
            "label": "_value",
            "offset": 0,
            "slot": "0",
            "type": "t_uint256"
          }
        ],
        "numberOfBytes": "32"
      },
      "t_uint256": {
        "encoding": "inplace",
        "label": "uint256",
        "numberOfBytes": "32"
      }
    }
  }
}